{
  "contractName": "BridgeBase",
  "abi": [
    {
      "inputs": [
        {
          "internalType": "address",
          "name": "_token",
          "type": "address"
        }
      ],
      "stateMutability": "nonpayable",
      "type": "constructor"
    },
    {
      "anonymous": false,
      "inputs": [
        {
          "indexed": false,
          "internalType": "address",
          "name": "from",
          "type": "address"
        },
        {
          "indexed": false,
          "internalType": "address",
          "name": "to",
          "type": "address"
        },
        {
          "indexed": false,
          "internalType": "uint256",
          "name": "amount",
          "type": "uint256"
        },
        {
          "indexed": false,
          "internalType": "uint256",
          "name": "date",
          "type": "uint256"
        },
        {
          "indexed": false,
          "internalType": "uint256",
          "name": "nonce",
          "type": "uint256"
        },
        {
          "indexed": true,
          "internalType": "enum BridgeBase.Step",
          "name": "step",
          "type": "uint8"
        }
      ],
      "name": "Transfer",
      "type": "event"
    },
    {
      "inputs": [],
      "name": "admin",
      "outputs": [
        {
          "internalType": "address",
          "name": "",
          "type": "address"
        }
      ],
      "stateMutability": "view",
      "type": "function"
    },
    {
      "inputs": [],
      "name": "nonce",
      "outputs": [
        {
          "internalType": "uint256",
          "name": "",
          "type": "uint256"
        }
      ],
      "stateMutability": "view",
      "type": "function"
    },
    {
      "inputs": [
        {
          "internalType": "uint256",
          "name": "",
          "type": "uint256"
        }
      ],
      "name": "processedNonces",
      "outputs": [
        {
          "internalType": "bool",
          "name": "",
          "type": "bool"
        }
      ],
      "stateMutability": "view",
      "type": "function"
    },
    {
      "inputs": [],
      "name": "token",
      "outputs": [
        {
          "internalType": "contract XToken",
          "name": "",
          "type": "address"
        }
      ],
      "stateMutability": "view",
      "type": "function"
    },
    {
      "inputs": [
        {
          "internalType": "address",
          "name": "to",
          "type": "address"
        },
        {
          "internalType": "uint256",
          "name": "amount",
          "type": "uint256"
        }
      ],
      "name": "burn",
      "outputs": [],
      "stateMutability": "nonpayable",
      "type": "function"
    },
    {
      "inputs": [
        {
          "internalType": "address",
          "name": "to",
          "type": "address"
        },
        {
          "internalType": "uint256",
          "name": "amount",
          "type": "uint256"
        },
        {
          "internalType": "uint256",
          "name": "otherChainNonce",
          "type": "uint256"
        }
      ],
      "name": "mint",
      "outputs": [],
      "stateMutability": "nonpayable",
      "type": "function"
    }
  ],
  "bytecode": "0x608060405234801561001057600080fd5b50604051610a97380380610a978339818101604052810190610032919061011c565b336000806101000a81548173ffffffffffffffffffffffffffffffffffffffff021916908373ffffffffffffffffffffffffffffffffffffffff16021790555080600160006101000a81548173ffffffffffffffffffffffffffffffffffffffff021916908373ffffffffffffffffffffffffffffffffffffffff16021790555050610149565b600080fd5b600073ffffffffffffffffffffffffffffffffffffffff82169050919050565b60006100e9826100be565b9050919050565b6100f9816100de565b811461010457600080fd5b50565b600081519050610116816100f0565b92915050565b600060208284031215610132576101316100b9565b5b600061014084828501610107565b91505092915050565b61093f806101586000396000f3fe608060405234801561001057600080fd5b50600436106100625760003560e01c8063156e29f61461006757806391dae519146100835780639dc29fac146100b3578063affed0e0146100cf578063f851a440146100ed578063fc0c546a1461010b575b600080fd5b610081600480360381019061007c9190610539565b610129565b005b61009d6004803603810190610098919061058c565b610330565b6040516100aa91906105d4565b60405180910390f35b6100cd60048036038101906100c891906105ef565b610350565b005b6100d7610450565b6040516100e4919061063e565b60405180910390f35b6100f5610456565b6040516101029190610668565b60405180910390f35b61011361047a565b60405161012091906106e2565b60405180910390f35b60008054906101000a900473ffffffffffffffffffffffffffffffffffffffff1673ffffffffffffffffffffffffffffffffffffffff163373ffffffffffffffffffffffffffffffffffffffff16146101b7576040517f08c379a00000000000000000000000000000000000000000000000000000000081526004016101ae9061075a565b60405180910390fd5b600015156003600083815260200190815260200160002060009054906101000a900460ff1615151461021e576040517f08c379a0000000000000000000000000000000000000000000000000000000008152600401610215906107c6565b60405180910390fd5b60016003600083815260200190815260200160002060006101000a81548160ff021916908315150217905550600160009054906101000a900473ffffffffffffffffffffffffffffffffffffffff1673ffffffffffffffffffffffffffffffffffffffff166340c10f1984846040518363ffffffff1660e01b81526004016102a79291906107e6565b600060405180830381600087803b1580156102c157600080fd5b505af11580156102d5573d6000803e3d6000fd5b505050506001808111156102ec576102eb61080f565b5b7f27757542a5e1b9e8cef80f584e094d4eb63b9802f355c61b3640b71b618d5c8e338585428660405161032395949392919061083e565b60405180910390a2505050565b60036020528060005260406000206000915054906101000a900460ff1681565b600160009054906101000a900473ffffffffffffffffffffffffffffffffffffffff1673ffffffffffffffffffffffffffffffffffffffff16639dc29fac33836040518363ffffffff1660e01b81526004016103ad9291906107e6565b600060405180830381600087803b1580156103c757600080fd5b505af11580156103db573d6000803e3d6000fd5b50505050600060018111156103f3576103f261080f565b5b7f27757542a5e1b9e8cef80f584e094d4eb63b9802f355c61b3640b71b618d5c8e3384844260025460405161042c95949392919061083e565b60405180910390a260026000815480929190610447906108c0565b91905055505050565b60025481565b60008054906101000a900473ffffffffffffffffffffffffffffffffffffffff1681565b600160009054906101000a900473ffffffffffffffffffffffffffffffffffffffff1681565b600080fd5b600073ffffffffffffffffffffffffffffffffffffffff82169050919050565b60006104d0826104a5565b9050919050565b6104e0816104c5565b81146104eb57600080fd5b50565b6000813590506104fd816104d7565b92915050565b6000819050919050565b61051681610503565b811461052157600080fd5b50565b6000813590506105338161050d565b92915050565b600080600060608486031215610552576105516104a0565b5b6000610560868287016104ee565b935050602061057186828701610524565b925050604061058286828701610524565b9150509250925092565b6000602082840312156105a2576105a16104a0565b5b60006105b084828501610524565b91505092915050565b60008115159050919050565b6105ce816105b9565b82525050565b60006020820190506105e960008301846105c5565b92915050565b60008060408385031215610606576106056104a0565b5b6000610614858286016104ee565b925050602061062585828601610524565b9150509250929050565b61063881610503565b82525050565b6000602082019050610653600083018461062f565b92915050565b610662816104c5565b82525050565b600060208201905061067d6000830184610659565b92915050565b6000819050919050565b60006106a86106a361069e846104a5565b610683565b6104a5565b9050919050565b60006106ba8261068d565b9050919050565b60006106cc826106af565b9050919050565b6106dc816106c1565b82525050565b60006020820190506106f760008301846106d3565b92915050565b600082825260208201905092915050565b7f6f6e6c792061646d696e00000000000000000000000000000000000000000000600082015250565b6000610744600a836106fd565b915061074f8261070e565b602082019050919050565b6000602082019050818103600083015261077381610737565b9050919050565b7f7472616e7366657220616c72656164792070726f636573736564000000000000600082015250565b60006107b0601a836106fd565b91506107bb8261077a565b602082019050919050565b600060208201905081810360008301526107df816107a3565b9050919050565b60006040820190506107fb6000830185610659565b610808602083018461062f565b9392505050565b7f4e487b7100000000000000000000000000000000000000000000000000000000600052602160045260246000fd5b600060a0820190506108536000830188610659565b6108606020830187610659565b61086d604083018661062f565b61087a606083018561062f565b610887608083018461062f565b9695505050505050565b7f4e487b7100000000000000000000000000000000000000000000000000000000600052601160045260246000fd5b60006108cb82610503565b91507fffffffffffffffffffffffffffffffffffffffffffffffffffffffffffffffff8214156108fe576108fd610891565b5b60018201905091905056fea26469706673582212202e5cddca8db9a6768cd4eb74e2bd30fb4df9f0780456ca8cfecd2d13b66ea22564736f6c634300080a0033",
  "immutableReferences": {},
  "source": "pragma solidity ^0.8.10;\n\nimport '@openzeppelin/contracts/token/ERC20/IERC20.sol';\nimport './XToken.sol';\n\ncontract BridgeBase {\n  address public admin;\n  XToken public token;\n  uint public nonce;\n  mapping(uint => bool) public processedNonces;\n\n  enum Step { Burn, Mint }\n  event Transfer(\n    address from,\n    address to,\n    uint amount,\n    uint date,\n    uint nonce,\n    Step indexed step\n  );\n\n  constructor(address _token) {\n    admin = msg.sender;\n    token = XToken(_token);\n  }\n\n  function burn(address to, uint amount) external {\n    token.burn(msg.sender, amount);\n    emit Transfer(\n      msg.sender,\n      to,\n      amount,\n      block.timestamp,\n      nonce,\n      Step.Burn\n    );\n    nonce++;\n  }\n\n  function mint(address to, uint amount, uint otherChainNonce) external {\n    require(msg.sender == admin, 'only admin');\n    require(processedNonces[otherChainNonce] == false, 'transfer already processed');\n    processedNonces[otherChainNonce] = true;\n    token.mint(to, amount);\n    emit Transfer(\n      msg.sender,\n      to,\n      amount,\n      block.timestamp,\n      otherChainNonce,\n      Step.Mint\n    );\n  }\n}",
  "sourcePath": "/Users/alex/Desktop/Blockchain/ETH-BSC-bridge/ETH-BSC-bridge/contracts/BridgeBase.sol",
  "compiler": {
    "name": "solc",
    "version": "0.8.10+commit.fc410830.Emscripten.clang"
  },
  "schemaVersion": "3.4.3",
  "updatedAt": "2022-01-15T11:03:29.051Z",
  "devdoc": {
    "kind": "dev",
    "methods": {},
    "version": 1
  },
  "userdoc": {
    "kind": "user",
    "methods": {},
    "version": 1
  }
}